{
    "_format": "hh-sol-artifact-1",
    "contractName": "Paypal",
    "sourceName": "contracts/payatm.sol",
    "abi": [
        {
            "anonymous": false,
            "inputs": [
                {
                    "indexed": true,
                    "internalType": "address",
                    "name": "recipientOf",
                    "type": "address"
                },
                {
                    "indexed": false,
                    "internalType": "address",
                    "name": "recipient",
                    "type": "address"
                },
                {
                    "indexed": false,
                    "internalType": "string",
                    "name": "recipientName",
                    "type": "string"
                }
            ],
            "name": "recipeints",
            "type": "event"
        },
        {
            "anonymous": false,
            "inputs": [
                {
                    "indexed": true,
                    "internalType": "address",
                    "name": "from",
                    "type": "address"
                },
                {
                    "indexed": false,
                    "internalType": "address",
                    "name": "to",
                    "type": "address"
                },
                {
                    "indexed": false,
                    "internalType": "uint256",
                    "name": "amount",
                    "type": "uint256"
                },
                {
                    "indexed": false,
                    "internalType": "string",
                    "name": "symbol",
                    "type": "string"
                }
            ],
            "name": "transactions",
            "type": "event"
        },
        {
            "inputs": [
                {
                    "internalType": "address",
                    "name": "_to",
                    "type": "address"
                },
                {
                    "internalType": "string",
                    "name": "symbol",
                    "type": "string"
                }
            ],
            "name": "_transfer",
            "outputs": [],
            "stateMutability": "payable",
            "type": "function"
        },
        {
            "inputs": [
                {
                    "internalType": "address",
                    "name": "recipient",
                    "type": "address"
                },
                {
                    "internalType": "string",
                    "name": "name",
                    "type": "string"
                }
            ],
            "name": "addRecipient",
            "outputs": [],
            "stateMutability": "nonpayable",
            "type": "function"
        },
        {
            "inputs": [
                {
                    "internalType": "address",
                    "name": "from",
                    "type": "address"
                },
                {
                    "internalType": "address",
                    "name": "to",
                    "type": "address"
                },
                {
                    "internalType": "uint256",
                    "name": "amount",
                    "type": "uint256"
                },
                {
                    "internalType": "string",
                    "name": "symbol",
                    "type": "string"
                }
            ],
            "name": "saveTx",
            "outputs": [],
            "stateMutability": "nonpayable",
            "type": "function"
        }
    ],
    "bytecode": "0x608060405234801561001057600080fd5b5061071d806100206000396000f3fe6080604052600436106100345760003560e01c80631b7b034514610039578063739b538414610055578063a628aeae1461007e575b600080fd5b610053600480360381019061004e9190610415565b6100a7565b005b34801561006157600080fd5b5061007c60048036038101906100779190610415565b6101b1565b005b34801561008a57600080fd5b506100a560048036038101906100a091906104a7565b610205565b005b60008273ffffffffffffffffffffffffffffffffffffffff16346040516100cd9061055b565b60006040518083038185875af1925050503d806000811461010a576040519150601f19603f3d011682016040523d82523d6000602084013e61010f565b606091505b50509050600115158115151461015a576040517f08c379a0000000000000000000000000000000000000000000000000000000008152600401610151906105cd565b60405180910390fd5b3373ffffffffffffffffffffffffffffffffffffffff167f76db3b1e0c138414c92d766944017ceb4aa5916020f18076b217087b242533a98434856040516101a493929190610679565b60405180910390a2505050565b3373ffffffffffffffffffffffffffffffffffffffff167f1c4014116cd39216627a9de9ba62e8f55ea87993d2ea6e01b2d90db98b7a054a83836040516101f99291906106b7565b60405180910390a25050565b8373ffffffffffffffffffffffffffffffffffffffff167f76db3b1e0c138414c92d766944017ceb4aa5916020f18076b217087b242533a984848460405161024f93929190610679565b60405180910390a250505050565b6000604051905090565b600080fd5b600080fd5b600073ffffffffffffffffffffffffffffffffffffffff82169050919050565b600061029c82610271565b9050919050565b6102ac81610291565b81146102b757600080fd5b50565b6000813590506102c9816102a3565b92915050565b600080fd5b600080fd5b6000601f19601f8301169050919050565b7f4e487b7100000000000000000000000000000000000000000000000000000000600052604160045260246000fd5b610322826102d9565b810181811067ffffffffffffffff82111715610341576103406102ea565b5b80604052505050565b600061035461025d565b90506103608282610319565b919050565b600067ffffffffffffffff8211156103805761037f6102ea565b5b610389826102d9565b9050602081019050919050565b82818337600083830152505050565b60006103b86103b384610365565b61034a565b9050828152602081018484840111156103d4576103d36102d4565b5b6103df848285610396565b509392505050565b600082601f8301126103fc576103fb6102cf565b5b813561040c8482602086016103a5565b91505092915050565b6000806040838503121561042c5761042b610267565b5b600061043a858286016102ba565b925050602083013567ffffffffffffffff81111561045b5761045a61026c565b5b610467858286016103e7565b9150509250929050565b6000819050919050565b61048481610471565b811461048f57600080fd5b50565b6000813590506104a18161047b565b92915050565b600080600080608085870312156104c1576104c0610267565b5b60006104cf878288016102ba565b94505060206104e0878288016102ba565b93505060406104f187828801610492565b925050606085013567ffffffffffffffff8111156105125761051161026c565b5b61051e878288016103e7565b91505092959194509250565b600081905092915050565b50565b600061054560008361052a565b915061055082610535565b600082019050919050565b600061056682610538565b9150819050919050565b600082825260208201905092915050565b7f4661696c656420746f2073656e64204554480000000000000000000000000000600082015250565b60006105b7601283610570565b91506105c282610581565b602082019050919050565b600060208201905081810360008301526105e6816105aa565b9050919050565b6105f681610291565b82525050565b61060581610471565b82525050565b600081519050919050565b60005b83811015610634578082015181840152602081019050610619565b60008484015250505050565b600061064b8261060b565b6106558185610570565b9350610665818560208601610616565b61066e816102d9565b840191505092915050565b600060608201905061068e60008301866105ed565b61069b60208301856105fc565b81810360408301526106ad8184610640565b9050949350505050565b60006040820190506106cc60008301856105ed565b81810360208301526106de8184610640565b9050939250505056fea264697066735822122096f5235ed405d7203a484bea11c351c9af5049d3d98715d50681f6218c84482d64736f6c63430008110033",
    "linkReferences": {},
    "deployedLinkReferences": {}
}